:1000000000308A009A2800008E30F7002808F80097
:100010002708F900FA01F808031D18287908F800E4
:10002000F9010830F702F808031D1828F701202805
:100030000310F81B1F28F90DF80DF7031828F81303
:100040008A110A12B828270803199328AF002B0831
:1000500003199328AF07031834287F30AF02031C1D
:1000600093280319932838288130AF070318932861
:100070002F08F700F801F901FA012808B300B317B7
:100080002908B2002A08B1001830AF00B001311CB5
:1000900061282E08FA07031C5328F90A031D532868
:1000A000F80A0319B0172D08F907031C5A28F80A93
:1000B0000319B0172C08A900A9172908F807031875
:1000C000B017B00DF80CF90CFA0CB30CB20CB10C63
:1000D0000310AF0B46280130F70703189328F81BCD
:1000E0007828B30DFA0DF90DF80DF70303199328CD
:1000F000B31F8928FA0A031D8928F90A031D8928D4
:10010000F80A031D8928F80CF90CFA0CF70A0319F0
:1001100093282808B0002C08B006B01F9128F817C3
:100120009728F8139728F701F801F901FA018A11C5
:100130000A12C628840183131F3083052610A610D7
:1001400083161F149F141F159F1107309C008530C4
:1001500083129000831601178312A6100B16C0306D
:100160008B04261CCE282108A8002008A7000428FC
:100170007A08AA007908A9007808A8007708A700DB
:10018000AE01AD01AC017F30AB0023287A08A50099
:100190007908A4007808A3007708A2002610B128E7
:0201A0006300FA
:02400E00793FF8
:00000001FF
;PIC16F877A
;CRC=5202  CREATED="19-feb.-21 19:49"
