:1000000000308A0088280000FF00030E8301A10051
:100010000A08A0008A010408A2007708A300780853
:10002000A4007908A5007A08A600831383120B1E8A
:100030001B288B182C28220884002308F70024088A
:10004000F8002508F9002608FA0020088A00210E89
:100050008300FF0E7F0E09008A110A122F28061C4A
:100060003428FF3086002F2886018B108A110A124F
:100070001B28383084008313000803194D280130F1
:10008000F800F701F70B4228F80B41284A30F70037
:10009000F70B48284B28800B3F28080007128715CC
:1000A000071587142730330784008313000888005E
:1000B0000130B8003920071687110715871427303B
:1000C000320784008313000888000130B80039200B
:1000D000071687150711871427303007840083130C
:1000E000000888000130B800392007168715071569
:1000F00087102730310784008313000888000130FF
:10010000B80039202830B80039208A110A12DB28BB
:1001100003081F398300B001B101B201B301831696
:100120001F149F141F159F1107309C0083133F302D
:100130008312A7000630A8005B30A9004F30AA0048
:100140006630AB006D30AC00FC30AD004730AE0027
:10015000FF30AF000B16C0308B04831601178312DB
:10016000B401B501B601B701013083168600E13054
:100170008700003088002730831230078400831303
:10018000000888008601B7013708083C031CE728EF
:10019000B201B6013608073C031CE428B001B401E3
:1001A0003408083C031CE128B101B5013508083CBE
:1001B000031CDE284E28B10AB50AD628B00AB40AB4
:1001C000D028B20AB60ACA28B30AB70AC428B301AB
:0401D000C3286300DD
:02400E00713F00
:00000001FF
;PIC16F877A
;CRC=5029  CREATED="17-mar.-21 16:47"
