:1000000000308A0084280000FF00030E8301A10055
:100010000A08A0008A010408A2007708A300780853
:10002000A4007908A5007A08A600831383120B1E8A
:100030001B288B182C28220884002308F70024088A
:10004000F8002508F9002608FA0020088A00210E89
:100050008300FF0E7F0E09008A110A127C283B30B4
:10006000840083130008031943280130F800F701C6
:10007000F70B3828F80B37284A30F700F70B3E28E3
:100080004128800B352808000712871507158714AB
:100090002830350784008313000888000130BB0036
:1000A0002F2007168711071587142830340784007E
:1000B0008313000888000130BB002F200716871526
:1000C0000711871428303207840083130008880042
:1000D0000130BB002F200716871507158710283021
:1000E000330784008313000888000130BB002F20F1
:1000F0002830BB002F2008000618802844207C28C8
:100100008B108A110A121B2803081F398300B201C1
:10011000B301B401B50183161F149F141F159F115D
:1001200007309C0083133F308312A8000630A900DB
:100130005B30AA004F30AB006630AC006D30AD00D4
:10014000FC30AE004730AF00FF30B0006730B10088
:100150000B16C0308B04831601138312B601B7014E
:10016000B801B901013083168600E1308700003004
:100170008800283083123207840083130008880027
:100180008601B9013908093C031CEB28B401B80108
:100190003808093C031CE828B201B6013608093CBE
:1001A000031CE528B301B7013708093C031CE2280A
:1001B000A7018B1BA7178B134420A71B8B17B30A10
:1001C000B70AD428B20AB60ACE28B40AB80AC82890
:0C01D000B50AB90AC228B501C1286300B5
:02400E00713F00
:00000001FF
;PIC16F877A
;CRC=FE21  CREATED="18-mar.-21 21:08"
