:1000000000308A00352800000A108A100A11820781
:1000100021340034283400342F3400348316061081
:100020000130831286060E30A6000030A7008A1128
:100030000A12A22808008316861002308312860650
:100040001B30AD000030AE008A110A12A228080051
:10005000831606110430831286062830B40000305F
:10006000B5008A110A12A228080003081F3983006C
:1000700083161F149F141F159F11831300308600D1
:10008000FF3083128600A101A3013230A200A50136
:100090000130A4000E30A6000030A700A801AA017C
:1000A0000330A900AC01AB011B30AD000030AE0045
:1000B000AF01B1019630B000B3010230B200283078
:1000C000B4000030B500A00183160108C03905381E
:1000D00081006430831281000B110310200DF700A2
:1000E0000420F900013077070420FA007908840021
:1000F00083137A1883170008F900840A0008F700B0
:10010000840A0008F800840A800A0008FA00031D27
:100110008C28840A800A8403840A00087802031D5C
:10012000A42877087A02031DA42884038001840A86
:100130008001840AF91BA428840A00088A00840329
:100140000008820083120313A00A03302002031D5B
:100150006D28A00101080B1DAF2883166928AA2865
:06016000FF30A000630067
:02400E00713F00
:00000001FF
;PIC16F877
;CRC=FBEB  CREATED="30-mar.-21 15:35"
