:1000000000308A0033280000A10183160610013059
:1000100083128606861006112108013C031C302835
:10002000CF308F002B308E000F08FA000E08F7003B
:100030000F087A02031D14287708A2007A08A3008B
:100040002308CE3C03182D28FF3A031D2B28220835
:100050002A3C03182D28861414280615A10A0C28FA
:100060008A110A124628840183131F3083058316E0
:100070001F149F141F159F1107309C00B530831269
:100080009000F83083168600831204284528630008
:02400E00313F40
:00000001FF
;PIC16F877A
;CRC=88F5  CREATED="20-feb.-21 15:29"
