:1000000000308A004F280000FF00030E8301A1008A
:100010000A08A0008A010408A2007708A300780853
:10002000A4007908A5007A08A600831383128B1E0A
:100030001B280B192C28220884002308F700240809
:10004000F8002508F9002608FA0020088A00210E89
:100050008300FF0E7F0E09008A110A122F288316D3
:100060008610023083128606063081000B118A1139
:100070000A121B28283084008313000803194E2815
:100080000130F800F701F70B4328F80B42284A30FB
:10009000F700F70B49284C28800B40280800840102
:1000A00083131F30830583161F149F141F159F1180
:1000B00007309C000108C039810083128B16C030C4
:1000C0008B040630810081308316860083128601FE
:1000D000FF3086000530A7009230A8003A20A70B19
:1000E0006C2886010530A7009230A8003A20A70BA3
:0600F0007428682863007B
:02400E00793FF8
:00000001FF
;PIC16F877A
;CRC=9DFF  CREATED="10-feb.-21 17:44"
