:1000000000308A000428000003081F39830083168B
:100010001F149F141F159F1107309C0083133F303E
:100020008312A0000630A1005B30A2004F30A30075
:100030006630A4006D30A500FC30A6004730A70054
:10004000FF30A800003083168600831286018316D5
:10005000071406308312A9000130AA002008860088
:10006000071C43280718322820302A0784008313EE
:10007000000886002A08AA0A2A02031900302A0862
:0A008000083C031CAA0130286300AD
:02400E00713F00
:00000001FF
;PIC16F877A
;CRC=4FE9  CREATED="15-mar.-21 20:00"
