:1000000000308A003B2800002D080739F7002D0C2E
:10001000F800F80CF80C1F30F80578082F0784005A
:10002000831330188317F801F80AF70A1828F80D17
:10003000F70B1728AE080319202878088004232816
:10004000F8097808800508002D080739F7002D0CFD
:10005000F800F80CF80C1F30F80578082E0784001B
:1000600083132F1883170008F800F70A3828F80CB4
:10007000F70B3728080003081F39830083161F1465
:100080009F141F159F1107309C00831300308600BA
:10009000831286018316071401308312A1000230F7
:1000A000A2000430A3000830A4001030A5002030C6
:1000B000A6004030A7008030A800A901AB010030A5
:1000C00007180130AC00AD000130AE00B001803047
:1000D000AF0004202C08AD00AF01AE012420781C35
:1000E0008A28A908031D8A28AA010130A900003026
:1000F00007180130AC00AD000130AE00B001803017
:10010000AF0004202C08AD00AF01AE012420781808
:1001100077285F28003007180130AC00AD000130AF
:10012000AE00B0018030AF0004202C08AD00AF015C
:10013000AE012420781CB428290BB4280130AA0071
:10014000A901003007180130AC00AD000130AE004D
:10015000B0018030AF0004202C08AD00AF01AE012B
:1001600024207818A1288A28AA08031DC228213033
:100170002B078400831300088600AB0A2B08083C79
:100180000319AB012A0BD12821302B0784008313DC
:1001900000088600AB032B08FF3C031DD128073065
:0601A000AB005F286300C4
:02400E00713F00
:00000001FF
;PIC16F877A
;CRC=B204  CREATED="05-mar.-21 23:47"
