:1000000000308A0042280000363084008313000844
:10001000031918280130F800F701F70B0D28F80B29
:100020000C284A30F700F70B13281628800B0A28F3
:100030008A110A126E28F701F801350803103618E4
:10004000F707F70CF80CB618F707F70CF80C361989
:10005000F707F70CF80CB619F707F70CF80C361A77
:10006000F707F70CF80CB61AF707F70CF80C361B65
:10007000F707F70CF80CB61BF707F70CF80C8A110A
:100080000A12802803081F3983001930831699004B
:10009000A630980090308312980083161F149F1486
:1000A0001F159F1107309C00831386018312860160
:1000B0004830A8006930A900AA01AB01AC014C305E
:1000C000AD006F30AE007730AF00B001B101FF304E
:1000D00086000430B500FA30B6000428B50B6B2852
:1000E000B2013208013C031C9B280130B4003408E3
:1000F000053C031C99283208B5000530B6001B28C2
:1001000034087807283E840083130008B5002130A6
:1001100034078400831300083502031D9428FF3040
:10012000B300330886009728B30133088600B40A69
:0A0130007728B20A712867286300DF
:02400E00713F00
:00000001FF
;PIC16F877A
;CRC=2720  CREATED="31-mar.-21 19:48"
