:1000000001308A0044290000FF00030E8301A10093
:100010000A08A0008A010408A2007708A300780853
:10002000A4007908A5007A08A600831383120B1E8A
:100030001B288B182C28220884002308F70024088A
:10004000F8002508F9002608FA0020088A00210E89
:100050008300FF0E7F0E09008A110A122F28AD0AB5
:100060002D0B3428FF3086002D08023C031D3A2852
:100070008601AD018B108A110A121B282E08013A45
:1000800003194928033A03197028013A03199728DC
:10009000BE280130F7002708F80003195328031081
:1000A000F70DF80B4F28770886040130F700280871
:1000B000F80003195F280310F70DF80B5B28770889
:1000C000FF3A86050130F7002908F80003196C286B
:1000D0000310F70DF80B68287708FF3A8605BE284D
:1000E0000130F7002808F80003197A280310F70DEB
:1000F000F80B7628770886040130F7002708F80007
:10010000031986280310F70DF80B82287708FF3AA9
:1001100086050130F7002908F80003199328031019
:10012000F70DF80B8F287708FF3A8605BE280130B7
:10013000F7002908F8000319A1280310F70DF80BA0
:100140009D28770886040130F7002708F800031976
:10015000AD280310F70DF80BA9287708FF3A86059C
:100160000130F7002808F8000319BA280310F70D2A
:10017000F80BB6287708FF3A8605BE288A110A12BE
:1001800078292E08013A0319CC28033A0319F328D9
:10019000013A03191A2941290130F7002A08F80009
:1001A0000319D6280310F70DF80BD2287708860418
:1001B0000130F7002B08F8000319E2280310F70DAF
:1001C000F80BDE287708FF3A86050130F7002C0887
:1001D000F8000319EF280310F70DF80BEB28770848
:1001E000FF3A860541290130F7002B08F800031972
:1001F000FD280310F70DF80BF92877088604013065
:10020000F7002A08F800031909290310F70DF80B65
:1002100005297708FF3A86050130F7002C08F80019
:10022000031916290310F70DF80B12297708FF3A66
:10023000860541290130F7002C08F800031924290C
:100240000310F70DF80B2029770886040130F7001A
:100250002B08F800031930290310F70DF80B2C298F
:100260007708FF3A86050130F7002A08F8000319DD
:100270003D290310F70DF80B39297708FF3A860559
:1002800041298A110A127D29840183131F308305B5
:100290000630A7000130A8000230A9000330AA00F0
:1002A0000430AB000530AC00AD01AE01AF018316E8
:1002B0001F149F141F159F1107309C0083120B16EB
:1002C00083160117C03083128B0403308316850018
:1002D0008130860083128601051C782905186E2955
:1002E000AE0A2E08033C031877290130AE003E28E1
:0E02F000851C7D2985187A29C1286C29630098
:02400E00793FF8
:00000001FF
;PIC16F877A
;CRC=F253  CREATED="10-feb.-21 17:26"
