:1000000001308A002E2900008E30F7002908F80000
:100010002808F900FA01F808031D18287908F800E3
:10002000F9010830F702F808031D1828F701202805
:100030000310F81B1F28F90DF80DF7031828F81303
:100040008A110A1264292C080319E828B80030081C
:100050000319E828B802031C32287F30B8070318B8
:10006000E82838288130B802031CE8280319E8285A
:100070003808F700F801F901FA01B7012D08B600B8
:10008000B6172E08B5002F08B4001930B800330891
:10009000B40203185B280130B50203185B28B602CE
:1000A00003185B28B70203185B28B70AB60AB50A1B
:1000B0003308B4078D283208B502031876280130BA
:1000C000B60203187628B70203187628B70AB60ACC
:1000D0003208B5073308B407031C8D28B50A031D81
:1000E0008D28B60A031D8D28B70A8D28310880385F
:1000F000B60203188C280130B70203188C28B70AFF
:1001000031088038B6073208B507031C6A28B60ADA
:10011000031D6A28B70A6A287A14B80B90289B280E
:100120000310B40DB50DB60DB70D0310FA0DF90D92
:10013000F80DB90D4728391CA3280310F80CF90C49
:10014000FA0CB90CA628F7030319E828B91BCF2825
:100150000310B40DB50DB60DB70D3308B402031876
:10016000BB280130B5020318BB28B6020318BB2810
:10017000B702031CDE283208B5020318C628013076
:10018000B6020318C628B702031CDE2831088038DF
:10019000B6020318CF280130B702031CDE28FA0A82
:1001A000031DDE28F90A031DDE28F80A031DDE28D8
:1001B000F70A0319E828F80CF90CFA0C2D08B80016
:1001C0003108B806B81FE628F817EC28F813EC2811
:1001D000F701F801F901FA0108002908B0002D081B
:1001E000B006B01FF82803110310A91B03142B2914
:1001F0002908B0002C08B1002808B102031906290B
:10020000B01F2B290308013A83002B292D08B100C8
:100210002908B10203191229B01F2B290308013A3A
:1002200083002B292E08B1002A08B10203191E29C8
:10023000B01F2B290308013A83002B292F08B10096
:100240002B08B10203192A29B01F2B290308013AF0
:1002500083002B2903108A110A12A8298401831311
:100260001F30830583161F149F141F159F1107301D
:100270009C00013086008312860185309000831631
:100280008610831286140330F700F70B4529831676
:10029000861083128610831606148312061C4B29BF
:1002A0008F018E01831606148312061852290F0837
:1002B000FA000E08F7000F087A02031D5729770885
:1002C000A8007A08A90004287A08A3007908A200E7
:1002D0007808A1007708A0002308AF002208AE002C
:1002E0002108AD002008AC00B301B201B10180309B
:1002F000B00023207708A8007808A9007908AA0090
:100300007A08AB00AF007908AE007808AD00770836
:10031000AC003330B300B2006930B1008330B000BC
:1003200023207A08A7007908A6007808A500770896
:10033000A4002708AB002608AA002508A900240865
:10034000A800AF01AE012030AD008230AC00ED2836
:10035000031CAF298316861383128617B3298316CD
:0A0360008613831286133F29630001
:02400E00313F40
:00000001FF
;PIC16F877A
;CRC=870B  CREATED="15-feb.-21 18:46"
