:1000000000308A0060280000C8340000CC37770038
:100010000B08A1008B13831603178C170C14000018
:10002000000083120313A11B8B1703170C087F39E1
:1000300003195E280313A10003170D080313A20080
:1000400003170F080313A30021080C1E252899008D
:10005000220803178D000313230803178F000313CF
:100060000B08A4008B13831603178C170C140000C5
:10007000000083120313A41B8B1703170C0D0E0D26
:100080007F3903195E280313A10003170D0803131A
:10009000A20003170F080313A30021080C1E4E280B
:1000A0009900220803178D000313230803178F00FC
:1000B0008D0A03198F0A0313082803170313080076
:1000C00003081F398300193083169900A630980061
:1000D00090308312980083161F149F141F159F11D0
:1000E00007309C008313811383120618862804307E
:1000F00003178D0000308F00031308200D300C1EF5
:100100007F2899000A300C1E8328990086189728AA
:10011000063003178D0000308F00031308200D30C8
:100120000C1E902899000A300C1E942899007528FE
:0201300063006A
:02400E00713F00
:00000001FF
;PIC16F877A
;CRC=A6BF  CREATED="31-mar.-21 18:16"
