:1000000000308A00272800000A108A100A1182078F
:10001000403479342434303499341234023438344E
:100020000034183424308400831300080319262870
:100030000130F800F701F70B1B28F80B1A284A309B
:10004000F700F70B21282428800B182808008401CA
:1000500083131F30830583161F149F141F159F11D0
:100060008312A101A201A30100308316850086003E
:1000700083128601A2012208093C031C5A28A1010F
:100080002108093C031C582802308500210804205F
:10009000A40086003230A40012200130850022081E
:1000A0000420A40086003230A4001220A10A4028B7
:0800B000A20A3B283A28630074
:02400E00733FFE
:00000001FF
;PIC16F876
;CRC=9697  CREATED="02-feb.-21 19:17"
