:1000000001308A003B290000FF00030E8301A1009C
:100010000A08A0008A010408A2007708A300780853
:10002000A4007908A5007A08A600831383120B1E8A
:100030001B288B182C28220884002308F70024088A
:10004000F8002508F9002608FA0020088A00210E89
:100050008300FF0E7F0E09008A110A122F28FF303D
:1000600086008B108A110A121B282D08013A0319E9
:100070004028033A03196728013A03198E28B52846
:100080000130F7002708F80003194A280310F70D7C
:10009000F80B4628770886040130F7002808F80096
:1000A000031956280310F70DF80B52287708FF3A6A
:1000B00086050130F7002908F800031963280310AA
:1000C000F70DF80B5F287708FF3A8605B528013051
:1000D000F7002808F800031971280310F70DF80B32
:1000E0006D28770886040130F7002708F800031907
:1000F0007D280310F70DF80B79287708FF3A86055D
:100100000130F7002908F80003198A280310F70DB9
:10011000F80B86287708FF3A8605B5280130F700E6
:100120002908F800031998280310F70DF80B9428F4
:10013000770886040130F7002708F8000319A4287F
:100140000310F70DF80BA0287708FF3A8605013059
:10015000F7002808F8000319B1280310F70DF80B71
:10016000AD287708FF3A8605B5288A110A126E294C
:100170002D08013A0319C328033A0319EA28013A62
:100180000319112938290130F7002A08F80003194A
:10019000CD280310F70DF80BC92877088604013025
:1001A000F7002B08F8000319D9280310F70DF80BF6
:1001B000D5287708FF3A86050130F7002C08F800AB
:1001C0000319E6280310F70DF80BE2287708FF3A29
:1001D000860538290130F7002B08F8000319F428A8
:1001E0000310F70DF80BF028770886040130F700AC
:1001F0002A08F800031900290310F70DF80BFC2852
:100200007708FF3A86050130F7002C08F80003193B
:100210000D290310F70DF80B09297708FF3A860519
:1002200038290130F7002C08F80003191B290310A6
:10023000F70DF80B1729770886040130F7002B0813
:10024000F800031927290310F70DF80B2329770865
:10025000FF3A86050130F7002A08F800031934290F
:100260000310F70DF80B30297708FF3A8605382977
:100270008A110A127329840183131F308305063003
:10028000A7000130A8000230A9000330AA00043002
:10029000AB000530AC00AD01AE0183161F149F14F6
:1002A0001F159F1107309C0083120B168316011730
:1002B000C03083128B0403308316850081308600A2
:1002C00083128601051C6E2905186429AD0A2D08C4
:1002D000033C03186D290130AD003528851C7329B6
:0A02E00085187029B8286229630010
:02400E00793FF8
:00000001FF
;PIC16F877A
;CRC=32EE  CREATED="09-feb.-21 22:01"
